{
  "_format": "hh-sol-artifact-1",
  "contractName": "Advaya",
  "sourceName": "contracts/Advaya.sol",
  "abi": [
    {
      "anonymous": false,
      "inputs": [
        {
          "indexed": true,
          "internalType": "uint256",
          "name": "id",
          "type": "uint256"
        },
        {
          "indexed": false,
          "internalType": "string",
          "name": "crop",
          "type": "string"
        },
        {
          "indexed": false,
          "internalType": "address",
          "name": "farmer",
          "type": "address"
        }
      ],
      "name": "AssetMinted",
      "type": "event"
    },
    {
      "anonymous": false,
      "inputs": [
        {
          "indexed": true,
          "internalType": "uint256",
          "name": "id",
          "type": "uint256"
        },
        {
          "indexed": false,
          "internalType": "address",
          "name": "auditor",
          "type": "address"
        }
      ],
      "name": "AuditCompleted",
      "type": "event"
    },
    {
      "anonymous": false,
      "inputs": [
        {
          "indexed": true,
          "internalType": "uint256",
          "name": "id",
          "type": "uint256"
        },
        {
          "indexed": false,
          "internalType": "address",
          "name": "distributor",
          "type": "address"
        }
      ],
      "name": "LogisticsInitialized",
      "type": "event"
    },
    {
      "inputs": [
        {
          "internalType": "uint256",
          "name": "_id",
          "type": "uint256"
        }
      ],
      "name": "finalizeDelivery",
      "outputs": [],
      "stateMutability": "nonpayable",
      "type": "function"
    },
    {
      "inputs": [
        {
          "internalType": "uint256",
          "name": "_id",
          "type": "uint256"
        }
      ],
      "name": "getBatchData",
      "outputs": [
        {
          "components": [
            {
              "internalType": "uint256",
              "name": "id",
              "type": "uint256"
            },
            {
              "internalType": "string",
              "name": "crop",
              "type": "string"
            },
            {
              "internalType": "uint256",
              "name": "weight",
              "type": "uint256"
            },
            {
              "internalType": "string",
              "name": "date",
              "type": "string"
            },
            {
              "internalType": "string",
              "name": "landId",
              "type": "string"
            },
            {
              "internalType": "enum Advaya.Stage",
              "name": "stage",
              "type": "uint8"
            },
            {
              "internalType": "address",
              "name": "farmer",
              "type": "address"
            },
            {
              "internalType": "address",
              "name": "auditor",
              "type": "address"
            },
            {
              "internalType": "bool",
              "name": "isVerified",
              "type": "bool"
            },
            {
              "internalType": "uint256",
              "name": "distance",
              "type": "uint256"
            },
            {
              "internalType": "uint256",
              "name": "timestamp",
              "type": "uint256"
            }
          ],
          "internalType": "struct Advaya.Batch",
          "name": "",
          "type": "tuple"
        }
      ],
      "stateMutability": "view",
      "type": "function"
    },
    {
      "inputs": [
        {
          "internalType": "string",
          "name": "_c",
          "type": "string"
        },
        {
          "internalType": "uint256",
          "name": "_w",
          "type": "uint256"
        },
        {
          "internalType": "string",
          "name": "_d",
          "type": "string"
        },
        {
          "internalType": "string",
          "name": "_l",
          "type": "string"
        }
      ],
      "name": "registerHarvest",
      "outputs": [
        {
          "internalType": "uint256",
          "name": "",
          "type": "uint256"
        }
      ],
      "stateMutability": "nonpayable",
      "type": "function"
    },
    {
      "inputs": [
        {
          "internalType": "uint256",
          "name": "",
          "type": "uint256"
        }
      ],
      "name": "registry",
      "outputs": [
        {
          "internalType": "uint256",
          "name": "id",
          "type": "uint256"
        },
        {
          "internalType": "string",
          "name": "crop",
          "type": "string"
        },
        {
          "internalType": "uint256",
          "name": "weight",
          "type": "uint256"
        },
        {
          "internalType": "string",
          "name": "date",
          "type": "string"
        },
        {
          "internalType": "string",
          "name": "landId",
          "type": "string"
        },
        {
          "internalType": "enum Advaya.Stage",
          "name": "stage",
          "type": "uint8"
        },
        {
          "internalType": "address",
          "name": "farmer",
          "type": "address"
        },
        {
          "internalType": "address",
          "name": "auditor",
          "type": "address"
        },
        {
          "internalType": "bool",
          "name": "isVerified",
          "type": "bool"
        },
        {
          "internalType": "uint256",
          "name": "distance",
          "type": "uint256"
        },
        {
          "internalType": "uint256",
          "name": "timestamp",
          "type": "uint256"
        }
      ],
      "stateMutability": "view",
      "type": "function"
    },
    {
      "inputs": [],
      "name": "totalBatches",
      "outputs": [
        {
          "internalType": "uint256",
          "name": "",
          "type": "uint256"
        }
      ],
      "stateMutability": "view",
      "type": "function"
    },
    {
      "inputs": [
        {
          "internalType": "uint256",
          "name": "_id",
          "type": "uint256"
        },
        {
          "internalType": "uint256",
          "name": "_dist",
          "type": "uint256"
        }
      ],
      "name": "updateLogistics",
      "outputs": [],
      "stateMutability": "nonpayable",
      "type": "function"
    },
    {
      "inputs": [
        {
          "internalType": "uint256",
          "name": "_id",
          "type": "uint256"
        }
      ],
      "name": "verifyQuality",
      "outputs": [],
      "stateMutability": "nonpayable",
      "type": "function"
    }
  ],
  "bytecode": "0x608060405234801561001057600080fd5b50611913806100206000396000f3fe608060405234801561001057600080fd5b506004361061007d5760003560e01c80635893253c1161005b5780635893253c146100fe57806369ff6abb14610138578063b51d3e4214610156578063d3f4ff65146101725761007d565b80630e5a03d9146100825780630fc801bc146100b257806327124cb7146100ce575b600080fd5b61009c60048036038101906100979190610f36565b61018e565b6040516100a99190611000565b60405180910390f35b6100cc60048036038101906100c7919061101b565b6103e5565b005b6100e860048036038101906100e3919061101b565b61056d565b6040516100f591906112a6565b60405180910390f35b6101186004803603810190610113919061101b565b6108cb565b60405161012f9b9a9998979695949392919061133f565b60405180910390f35b610140610b17565b60405161014d9190611000565b60405180910390f35b610170600480360381019061016b91906113ff565b610b1d565b005b61018c6004803603810190610187919061101b565b610c3e565b005b6000600160008154809291906101a39061146e565b91905055506040518061016001604052806001548152602001868152602001858152602001848152602001838152602001600060038111156101e8576101e76110d6565b5b81526020013373ffffffffffffffffffffffffffffffffffffffff168152602001600073ffffffffffffffffffffffffffffffffffffffff1681526020016000151581526020016000815260200142815250600080600154815260200190815260200160002060008201518160000155602082015181600101908161026d91906116c2565b5060408201518160020155606082015181600301908161028d91906116c2565b5060808201518160040190816102a391906116c2565b5060a08201518160050160006101000a81548160ff021916908360038111156102cf576102ce6110d6565b5b021790555060c08201518160050160016101000a81548173ffffffffffffffffffffffffffffffffffffffff021916908373ffffffffffffffffffffffffffffffffffffffff16021790555060e08201518160060160006101000a81548173ffffffffffffffffffffffffffffffffffffffff021916908373ffffffffffffffffffffffffffffffffffffffff1602179055506101008201518160060160146101000a81548160ff021916908315150217905550610120820151816007015561014082015181600801559050506001547fd795f81e396978efe4b953561251f092354cd8282d26b4c9ebe648f61b2a71cd86336040516103d0929190611794565b60405180910390a26001549050949350505050565b8060008060038111156103fb576103fa6110d6565b5b60008084815260200190815260200160002060050160009054906101000a900460ff1660038111156104305761042f6110d6565b5b14610470576040517f08c379a000000000000000000000000000000000000000000000000000000000815260040161046790611836565b60405180910390fd5b600160008085815260200190815260200160002060060160146101000a81548160ff0219169083151502179055503360008085815260200190815260200160002060060160006101000a81548173ffffffffffffffffffffffffffffffffffffffff021916908373ffffffffffffffffffffffffffffffffffffffff160217905550600160008085815260200190815260200160002060050160006101000a81548160ff0219169083600381111561052b5761052a6110d6565b5b0217905550827f5632e8fcd4a8b1e10bb022d7de8c129292700ec06e96998d3b672798add645bd336040516105609190611856565b60405180910390a2505050565b610575610d0c565b60015482111580156105875750600082115b6105c6576040517f08c379a00000000000000000000000000000000000000000000000000000000081526004016105bd906118bd565b60405180910390fd5b60008083815260200190815260200160002060405180610160016040529081600082015481526020016001820180546105fe906114e5565b80601f016020809104026020016040519081016040528092919081815260200182805461062a906114e5565b80156106775780601f1061064c57610100808354040283529160200191610677565b820191906000526020600020905b81548152906001019060200180831161065a57829003601f168201915b505050505081526020016002820154815260200160038201805461069a906114e5565b80601f01602080910402602001604051908101604052809291908181526020018280546106c6906114e5565b80156107135780601f106106e857610100808354040283529160200191610713565b820191906000526020600020905b8154815290600101906020018083116106f657829003601f168201915b5050505050815260200160048201805461072c906114e5565b80601f0160208091040260200160405190810160405280929190818152602001828054610758906114e5565b80156107a55780601f1061077a576101008083540402835291602001916107a5565b820191906000526020600020905b81548152906001019060200180831161078857829003601f168201915b505050505081526020016005820160009054906101000a900460ff1660038111156107d3576107d26110d6565b5b60038111156107e5576107e46110d6565b5b81526020016005820160019054906101000a900473ffffffffffffffffffffffffffffffffffffffff1673ffffffffffffffffffffffffffffffffffffffff1673ffffffffffffffffffffffffffffffffffffffff1681526020016006820160009054906101000a900473ffffffffffffffffffffffffffffffffffffffff1673ffffffffffffffffffffffffffffffffffffffff1673ffffffffffffffffffffffffffffffffffffffff1681526020016006820160149054906101000a900460ff16151515158152602001600782015481526020016008820154815250509050919050565b60006020528060005260406000206000915090508060000154908060010180546108f4906114e5565b80601f0160208091040260200160405190810160405280929190818152602001828054610920906114e5565b801561096d5780601f106109425761010080835404028352916020019161096d565b820191906000526020600020905b81548152906001019060200180831161095057829003601f168201915b505050505090806002015490806003018054610988906114e5565b80601f01602080910402602001604051908101604052809291908181526020018280546109b4906114e5565b8015610a015780601f106109d657610100808354040283529160200191610a01565b820191906000526020600020905b8154815290600101906020018083116109e457829003601f168201915b505050505090806004018054610a16906114e5565b80601f0160208091040260200160405190810160405280929190818152602001828054610a42906114e5565b8015610a8f5780601f10610a6457610100808354040283529160200191610a8f565b820191906000526020600020905b815481529060010190602001808311610a7257829003601f168201915b5050505050908060050160009054906101000a900460ff16908060050160019054906101000a900473ffffffffffffffffffffffffffffffffffffffff16908060060160009054906101000a900473ffffffffffffffffffffffffffffffffffffffff16908060060160149054906101000a900460ff1690806007015490806008015490508b565b60015481565b816001806003811115610b3357610b326110d6565b5b60008084815260200190815260200160002060050160009054906101000a900460ff166003811115610b6857610b676110d6565b5b14610ba8576040517f08c379a0000000000000000000000000000000000000000000000000000000008152600401610b9f90611836565b60405180910390fd5b8260008086815260200190815260200160002060070181905550600260008086815260200190815260200160002060050160006101000a81548160ff02191690836003811115610bfb57610bfa6110d6565b5b0217905550837f632d86fa3bfd4dbd7ba009bdce2f30f18253cce5926ee812c5775f658763cca233604051610c309190611856565b60405180910390a250505050565b806002806003811115610c5457610c536110d6565b5b60008084815260200190815260200160002060050160009054906101000a900460ff166003811115610c8957610c886110d6565b5b14610cc9576040517f08c379a0000000000000000000000000000000000000000000000000000000008152600401610cc090611836565b60405180910390fd5b600360008085815260200190815260200160002060050160006101000a81548160ff02191690836003811115610d0257610d016110d6565b5b0217905550505050565b604051806101600160405280600081526020016060815260200160008152602001606081526020016060815260200160006003811115610d4f57610d4e6110d6565b5b8152602001600073ffffffffffffffffffffffffffffffffffffffff168152602001600073ffffffffffffffffffffffffffffffffffffffff16815260200160001515815260200160008152602001600081525090565b6000604051905090565b600080fd5b600080fd5b600080fd5b600080fd5b6000601f19601f8301169050919050565b7f4e487b7100000000000000000000000000000000000000000000000000000000600052604160045260246000fd5b610e0d82610dc4565b810181811067ffffffffffffffff82111715610e2c57610e2b610dd5565b5b80604052505050565b6000610e3f610da6565b9050610e4b8282610e04565b919050565b600067ffffffffffffffff821115610e6b57610e6a610dd5565b5b610e7482610dc4565b9050602081019050919050565b82818337600083830152505050565b6000610ea3610e9e84610e50565b610e35565b905082815260208101848484011115610ebf57610ebe610dbf565b5b610eca848285610e81565b509392505050565b600082601f830112610ee757610ee6610dba565b5b8135610ef7848260208601610e90565b91505092915050565b6000819050919050565b610f1381610f00565b8114610f1e57600080fd5b50565b600081359050610f3081610f0a565b92915050565b60008060008060808587031215610f5057610f4f610db0565b5b600085013567ffffffffffffffff811115610f6e57610f6d610db5565b5b610f7a87828801610ed2565b9450506020610f8b87828801610f21565b935050604085013567ffffffffffffffff811115610fac57610fab610db5565b5b610fb887828801610ed2565b925050606085013567ffffffffffffffff811115610fd957610fd8610db5565b5b610fe587828801610ed2565b91505092959194509250565b610ffa81610f00565b82525050565b60006020820190506110156000830184610ff1565b92915050565b60006020828403121561103157611030610db0565b5b600061103f84828501610f21565b91505092915050565b61105181610f00565b82525050565b600081519050919050565b600082825260208201905092915050565b60005b83811015611091578082015181840152602081019050611076565b60008484015250505050565b60006110a882611057565b6110b28185611062565b93506110c2818560208601611073565b6110cb81610dc4565b840191505092915050565b7f4e487b7100000000000000000000000000000000000000000000000000000000600052602160045260246000fd5b60048110611116576111156110d6565b5b50565b600081905061112782611105565b919050565b600061113782611119565b9050919050565b6111478161112c565b82525050565b600073ffffffffffffffffffffffffffffffffffffffff82169050919050565b60006111788261114d565b9050919050565b6111888161116d565b82525050565b60008115159050919050565b6111a38161118e565b82525050565b6000610160830160008301516111c26000860182611048565b50602083015184820360208601526111da828261109d565b91505060408301516111ef6040860182611048565b5060608301518482036060860152611207828261109d565b91505060808301518482036080860152611221828261109d565b91505060a083015161123660a086018261113e565b5060c083015161124960c086018261117f565b5060e083015161125c60e086018261117f565b5061010083015161127161010086018261119a565b50610120830151611286610120860182611048565b5061014083015161129b610140860182611048565b508091505092915050565b600060208201905081810360008301526112c081846111a9565b905092915050565b600082825260208201905092915050565b60006112e482611057565b6112ee81856112c8565b93506112fe818560208601611073565b61130781610dc4565b840191505092915050565b61131b8161112c565b82525050565b61132a8161116d565b82525050565b6113398161118e565b82525050565b600061016082019050611355600083018e610ff1565b8181036020830152611367818d6112d9565b9050611376604083018c610ff1565b8181036060830152611388818b6112d9565b9050818103608083015261139c818a6112d9565b90506113ab60a0830189611312565b6113b860c0830188611321565b6113c560e0830187611321565b6113d3610100830186611330565b6113e1610120830185610ff1565b6113ef610140830184610ff1565b9c9b505050505050505050505050565b6000806040838503121561141657611415610db0565b5b600061142485828601610f21565b925050602061143585828601610f21565b9150509250929050565b7f4e487b7100000000000000000000000000000000000000000000000000000000600052601160045260246000fd5b600061147982610f00565b91507fffffffffffffffffffffffffffffffffffffffffffffffffffffffffffffffff82036114ab576114aa61143f565b5b600182019050919050565b7f4e487b7100000000000000000000000000000000000000000000000000000000600052602260045260246000fd5b600060028204905060018216806114fd57607f821691505b6020821081036115105761150f6114b6565b5b50919050565b60008190508160005260206000209050919050565b60006020601f8301049050919050565b600082821b905092915050565b6000600883026115787fffffffffffffffffffffffffffffffffffffffffffffffffffffffffffffffff8261153b565b611582868361153b565b95508019841693508086168417925050509392505050565b6000819050919050565b60006115bf6115ba6115b584610f00565b61159a565b610f00565b9050919050565b6000819050919050565b6115d9836115a4565b6115ed6115e5826115c6565b848454611548565b825550505050565b600090565b6116026115f5565b61160d8184846115d0565b505050565b5b81811015611631576116266000826115fa565b600181019050611613565b5050565b601f8211156116765761164781611516565b6116508461152b565b8101602085101561165f578190505b61167361166b8561152b565b830182611612565b50505b505050565b600082821c905092915050565b60006116996000198460080261167b565b1980831691505092915050565b60006116b28383611688565b9150826002028217905092915050565b6116cb82611057565b67ffffffffffffffff8111156116e4576116e3610dd5565b5b6116ee82546114e5565b6116f9828285611635565b600060209050601f83116001811461172c576000841561171a578287015190505b61172485826116a6565b86555061178c565b601f19841661173a86611516565b60005b828110156117625784890151825560018201915060208501945060208101905061173d565b8683101561177f578489015161177b601f891682611688565b8355505b6001600288020188555050505b505050505050565b600060408201905081810360008301526117ae81856112d9565b90506117bd6020830184611321565b9392505050565b7f53657175656e6365204572726f723a20556e617574686f72697a65642061636360008201527f65737320617420746869732073746167652e0000000000000000000000000000602082015250565b60006118206032836112c8565b915061182b826117c4565b604082019050919050565b6000602082019050818103600083015261184f81611813565b9050919050565b600060208201905061186b6000830184611321565b92915050565b7f5175657279204572726f723a20496e76616c6964204261746368204944000000600082015250565b60006118a7601d836112c8565b91506118b282611871565b602082019050919050565b600060208201905081810360008301526118d68161189a565b905091905056fea264697066735822122085a97d82ef9e804b6331c9fa4827198ec4018b986f8111ca90f3996c87a1c30464736f6c63430008140033",
  "linkReferences": {},
  "deployedLinkReferences": {}
}