{
  "_format": "hh-sol-artifact-1",
  "contractName": "Advaya",
  "sourceName": "contracts/Advaya.sol",
  "abi": [
    {
      "inputs": [],
      "name": "batchCount",
      "outputs": [
        {
          "internalType": "uint256",
          "name": "",
          "type": "uint256"
        }
      ],
      "stateMutability": "view",
      "type": "function"
    },
    {
      "inputs": [
        {
          "internalType": "uint256",
          "name": "",
          "type": "uint256"
        }
      ],
      "name": "batches",
      "outputs": [
        {
          "internalType": "string",
          "name": "crop",
          "type": "string"
        },
        {
          "internalType": "string",
          "name": "farmer",
          "type": "string"
        },
        {
          "internalType": "bool",
          "name": "isVerified",
          "type": "bool"
        },
        {
          "internalType": "bool",
          "name": "hasAlert",
          "type": "bool"
        },
        {
          "internalType": "string",
          "name": "qualityGrade",
          "type": "string"
        }
      ],
      "stateMutability": "view",
      "type": "function"
    },
    {
      "inputs": [
        {
          "internalType": "uint256",
          "name": "_id",
          "type": "uint256"
        }
      ],
      "name": "getBatch",
      "outputs": [
        {
          "internalType": "string",
          "name": "",
          "type": "string"
        },
        {
          "internalType": "string",
          "name": "",
          "type": "string"
        },
        {
          "internalType": "bool",
          "name": "",
          "type": "bool"
        },
        {
          "internalType": "bool",
          "name": "",
          "type": "bool"
        },
        {
          "internalType": "string",
          "name": "",
          "type": "string"
        }
      ],
      "stateMutability": "view",
      "type": "function"
    },
    {
      "inputs": [
        {
          "internalType": "string",
          "name": "_c",
          "type": "string"
        },
        {
          "internalType": "string",
          "name": "_f",
          "type": "string"
        }
      ],
      "name": "registerHarvest",
      "outputs": [],
      "stateMutability": "nonpayable",
      "type": "function"
    },
    {
      "inputs": [
        {
          "internalType": "uint256",
          "name": "_id",
          "type": "uint256"
        }
      ],
      "name": "triggerAlert",
      "outputs": [],
      "stateMutability": "nonpayable",
      "type": "function"
    },
    {
      "inputs": [
        {
          "internalType": "uint256",
          "name": "_id",
          "type": "uint256"
        },
        {
          "internalType": "string",
          "name": "_grade",
          "type": "string"
        }
      ],
      "name": "verifyBatch",
      "outputs": [],
      "stateMutability": "nonpayable",
      "type": "function"
    }
  ],
  "bytecode": "0x608060405234801561001057600080fd5b50610e56806100206000396000f3fe608060405234801561001057600080fd5b50600436106100625760003560e01c806306f13056146100675780635ac44282146100855780638164510f146100b9578063b32c4d8d146100d5578063c7b7eeb714610109578063f2b2412c14610125575b600080fd5b61006f610141565b60405161007c9190610727565b60405180910390f35b61009f600480360381019061009a9190610782565b610147565b6040516100b095949392919061085a565b60405180910390f35b6100d360048036038101906100ce9190610782565b610389565b005b6100ef60048036038101906100ea9190610782565b6103ba565b60405161010095949392919061085a565b60405180910390f35b610123600480360381019061011e91906109f7565b6105a2565b005b61013f600480360381019061013a9190610a53565b6105f7565b005b60015481565b606080600080606060008060008881526020019081526020016000206040518060a001604052908160008201805461017e90610afa565b80601f01602080910402602001604051908101604052809291908181526020018280546101aa90610afa565b80156101f75780601f106101cc576101008083540402835291602001916101f7565b820191906000526020600020905b8154815290600101906020018083116101da57829003601f168201915b5050505050815260200160018201805461021090610afa565b80601f016020809104026020016040519081016040528092919081815260200182805461023c90610afa565b80156102895780601f1061025e57610100808354040283529160200191610289565b820191906000526020600020905b81548152906001019060200180831161026c57829003601f168201915b505050505081526020016002820160009054906101000a900460ff161515151581526020016002820160019054906101000a900460ff161515151581526020016003820180546102d890610afa565b80601f016020809104026020016040519081016040528092919081815260200182805461030490610afa565b80156103515780601f1061032657610100808354040283529160200191610351565b820191906000526020600020905b81548152906001019060200180831161033457829003601f168201915b505050505081525050905080600001518160200151826040015183606001518460800151955095509550955095505091939590929450565b600160008083815260200190815260200160002060020160016101000a81548160ff02191690831515021790555050565b60006020528060005260406000206000915090508060000180546103dd90610afa565b80601f016020809104026020016040519081016040528092919081815260200182805461040990610afa565b80156104565780601f1061042b57610100808354040283529160200191610456565b820191906000526020600020905b81548152906001019060200180831161043957829003601f168201915b50505050509080600101805461046b90610afa565b80601f016020809104026020016040519081016040528092919081815260200182805461049790610afa565b80156104e45780601f106104b9576101008083540402835291602001916104e4565b820191906000526020600020905b8154815290600101906020018083116104c757829003601f168201915b5050505050908060020160009054906101000a900460ff16908060020160019054906101000a900460ff169080600301805461051f90610afa565b80601f016020809104026020016040519081016040528092919081815260200182805461054b90610afa565b80156105985780601f1061056d57610100808354040283529160200191610598565b820191906000526020600020905b81548152906001019060200180831161057b57829003601f168201915b5050505050905085565b600160008084815260200190815260200160002060020160006101000a81548160ff0219169083151502179055508060008084815260200190815260200160002060030190816105f29190610cd7565b505050565b6001600081548092919061060a90610dd8565b91905055506040518060a001604052808381526020018281526020016000151581526020016000151581526020016040518060400160405280600781526020017f50656e64696e67000000000000000000000000000000000000000000000000008152508152506000806001548152602001908152602001600020600082015181600001908161069a9190610cd7565b5060208201518160010190816106b09190610cd7565b5060408201518160020160006101000a81548160ff02191690831515021790555060608201518160020160016101000a81548160ff02191690831515021790555060808201518160030190816107069190610cd7565b509050505050565b6000819050919050565b6107218161070e565b82525050565b600060208201905061073c6000830184610718565b92915050565b6000604051905090565b600080fd5b600080fd5b61075f8161070e565b811461076a57600080fd5b50565b60008135905061077c81610756565b92915050565b6000602082840312156107985761079761074c565b5b60006107a68482850161076d565b91505092915050565b600081519050919050565b600082825260208201905092915050565b60005b838110156107e95780820151818401526020810190506107ce565b60008484015250505050565b6000601f19601f8301169050919050565b6000610811826107af565b61081b81856107ba565b935061082b8185602086016107cb565b610834816107f5565b840191505092915050565b60008115159050919050565b6108548161083f565b82525050565b600060a08201905081810360008301526108748188610806565b905081810360208301526108888187610806565b9050610897604083018661084b565b6108a4606083018561084b565b81810360808301526108b68184610806565b90509695505050505050565b600080fd5b600080fd5b7f4e487b7100000000000000000000000000000000000000000000000000000000600052604160045260246000fd5b610904826107f5565b810181811067ffffffffffffffff82111715610923576109226108cc565b5b80604052505050565b6000610936610742565b905061094282826108fb565b919050565b600067ffffffffffffffff821115610962576109616108cc565b5b61096b826107f5565b9050602081019050919050565b82818337600083830152505050565b600061099a61099584610947565b61092c565b9050828152602081018484840111156109b6576109b56108c7565b5b6109c1848285610978565b509392505050565b600082601f8301126109de576109dd6108c2565b5b81356109ee848260208601610987565b91505092915050565b60008060408385031215610a0e57610a0d61074c565b5b6000610a1c8582860161076d565b925050602083013567ffffffffffffffff811115610a3d57610a3c610751565b5b610a49858286016109c9565b9150509250929050565b60008060408385031215610a6a57610a6961074c565b5b600083013567ffffffffffffffff811115610a8857610a87610751565b5b610a94858286016109c9565b925050602083013567ffffffffffffffff811115610ab557610ab4610751565b5b610ac1858286016109c9565b9150509250929050565b7f4e487b7100000000000000000000000000000000000000000000000000000000600052602260045260246000fd5b60006002820490506001821680610b1257607f821691505b602082108103610b2557610b24610acb565b5b50919050565b60008190508160005260206000209050919050565b60006020601f8301049050919050565b600082821b905092915050565b600060088302610b8d7fffffffffffffffffffffffffffffffffffffffffffffffffffffffffffffffff82610b50565b610b978683610b50565b95508019841693508086168417925050509392505050565b6000819050919050565b6000610bd4610bcf610bca8461070e565b610baf565b61070e565b9050919050565b6000819050919050565b610bee83610bb9565b610c02610bfa82610bdb565b848454610b5d565b825550505050565b600090565b610c17610c0a565b610c22818484610be5565b505050565b5b81811015610c4657610c3b600082610c0f565b600181019050610c28565b5050565b601f821115610c8b57610c5c81610b2b565b610c6584610b40565b81016020851015610c74578190505b610c88610c8085610b40565b830182610c27565b50505b505050565b600082821c905092915050565b6000610cae60001984600802610c90565b1980831691505092915050565b6000610cc78383610c9d565b9150826002028217905092915050565b610ce0826107af565b67ffffffffffffffff811115610cf957610cf86108cc565b5b610d038254610afa565b610d0e828285610c4a565b600060209050601f831160018114610d415760008415610d2f578287015190505b610d398582610cbb565b865550610da1565b601f198416610d4f86610b2b565b60005b82811015610d7757848901518255600182019150602085019450602081019050610d52565b86831015610d945784890151610d90601f891682610c9d565b8355505b6001600288020188555050505b505050505050565b7f4e487b7100000000000000000000000000000000000000000000000000000000600052601160045260246000fd5b6000610de38261070e565b91507fffffffffffffffffffffffffffffffffffffffffffffffffffffffffffffffff8203610e1557610e14610da9565b5b60018201905091905056fea264697066735822122037dc464721c5756191541b0995cb1ddd53b3f394cf0e70134d9eb726418a7b8e64736f6c63430008140033",
  "linkReferences": {},
  "deployedLinkReferences": {}
}